{
  "contractName": "CrowdSale",
  "abi": [
    {
      "inputs": [
        {
          "internalType": "address",
          "name": "tokenAddress",
          "type": "address"
        }
      ],
      "stateMutability": "nonpayable",
      "type": "constructor"
    },
    {
      "inputs": [],
      "name": "admin",
      "outputs": [
        {
          "internalType": "address",
          "name": "",
          "type": "address"
        }
      ],
      "stateMutability": "view",
      "type": "function",
      "constant": true
    },
    {
      "inputs": [],
      "name": "maxToken",
      "outputs": [
        {
          "internalType": "uint256",
          "name": "",
          "type": "uint256"
        }
      ],
      "stateMutability": "view",
      "type": "function",
      "constant": true
    },
    {
      "inputs": [
        {
          "internalType": "address",
          "name": "",
          "type": "address"
        }
      ],
      "name": "sales",
      "outputs": [
        {
          "internalType": "address",
          "name": "investor",
          "type": "address"
        },
        {
          "internalType": "uint256",
          "name": "amount",
          "type": "uint256"
        },
        {
          "internalType": "bool",
          "name": "tokensWithdrawn",
          "type": "bool"
        }
      ],
      "stateMutability": "view",
      "type": "function",
      "constant": true
    },
    {
      "inputs": [],
      "name": "token",
      "outputs": [
        {
          "internalType": "contract CodeZ",
          "name": "",
          "type": "address"
        }
      ],
      "stateMutability": "view",
      "type": "function",
      "constant": true
    },
    {
      "inputs": [
        {
          "internalType": "uint256",
          "name": "ethAmount",
          "type": "uint256"
        },
        {
          "internalType": "address payable",
          "name": "CrowdSaleAddress",
          "type": "address"
        }
      ],
      "name": "buy",
      "outputs": [],
      "stateMutability": "payable",
      "type": "function",
      "payable": true
    },
    {
      "inputs": [],
      "name": "withdrawTokens",
      "outputs": [],
      "stateMutability": "nonpayable",
      "type": "function"
    }
  ],
  "bytecode": "0x60806040526002600355678ac7230489e8000060045534801561002157600080fd5b50604051610d04380380610d048339818101604052602081101561004457600080fd5b810190808051906020019092919050505080600260006101000a81548173ffffffffffffffffffffffffffffffffffffffff021916908373ffffffffffffffffffffffffffffffffffffffff16021790555033600160006101000a81548173ffffffffffffffffffffffffffffffffffffffff021916908373ffffffffffffffffffffffffffffffffffffffff16021790555050610c1d806100e76000396000f3fe6080604052600436106100555760003560e01c80637deb60251461005a5780638d8f2adb146100a8578063c6b9f06a146100bf578063ca69e3231461014a578063f851a44014610175578063fc0c546a146101b6575b600080fd5b6100a66004803603604081101561007057600080fd5b8101908080359060200190929190803573ffffffffffffffffffffffffffffffffffffffff1690602001909291905050506101f7565b005b3480156100b457600080fd5b506100bd610597565b005b3480156100cb57600080fd5b5061010e600480360360208110156100e257600080fd5b81019080803573ffffffffffffffffffffffffffffffffffffffff1690602001909291905050506107f5565b604051808473ffffffffffffffffffffffffffffffffffffffff1681526020018381526020018215158152602001935050505060405180910390f35b34801561015657600080fd5b5061015f61084c565b6040518082815260200191505060405180910390f35b34801561018157600080fd5b5061018a610852565b604051808273ffffffffffffffffffffffffffffffffffffffff16815260200191505060405180910390f35b3480156101c257600080fd5b506101cb610878565b604051808273ffffffffffffffffffffffffffffffffffffffff16815260200191505060405180910390f35b6706f05b59d3b20000821115610275576040517f08c379a000000000000000000000000000000000000000000000000000000000815260040180806020018281038252600e8152602001807f416d6f756e74206973204869676800000000000000000000000000000000000081525060200191505060405180910390fd5b610288824761089e90919063ffffffff16565b600454101561029657600080fd5b60006102ce67016345785d8a00006102c068056bc75e2d631000008661092690919063ffffffff16565b6109ac90919063ffffffff16565b905060006102fa826102ec606460035461092690919063ffffffff16565b6109ac90919063ffffffff16565b90508273ffffffffffffffffffffffffffffffffffffffff166108fc859081150290604051600060405180830381858888f19350505050158015610342573d6000803e3d6000fd5b50600260009054906101000a900473ffffffffffffffffffffffffffffffffffffffff1673ffffffffffffffffffffffffffffffffffffffff166340c10f1930846040518363ffffffff1660e01b8152600401808373ffffffffffffffffffffffffffffffffffffffff16815260200182815260200192505050600060405180830381600087803b1580156103d657600080fd5b505af11580156103ea573d6000803e3d6000fd5b50505050600260009054906101000a900473ffffffffffffffffffffffffffffffffffffffff1673ffffffffffffffffffffffffffffffffffffffff16639dc29fac30836040518363ffffffff1660e01b8152600401808373ffffffffffffffffffffffffffffffffffffffff16815260200182815260200192505050600060405180830381600087803b15801561048157600080fd5b505af1158015610495573d6000803e3d6000fd5b5050505060405180606001604052803373ffffffffffffffffffffffffffffffffffffffff1681526020016104d383856109f690919063ffffffff16565b8152602001600015158152506000803373ffffffffffffffffffffffffffffffffffffffff1673ffffffffffffffffffffffffffffffffffffffff16815260200190815260200160002060008201518160000160006101000a81548173ffffffffffffffffffffffffffffffffffffffff021916908373ffffffffffffffffffffffffffffffffffffffff1602179055506020820151816001015560408201518160020160006101000a81548160ff02191690831515021790555090505050505050565b60008060003373ffffffffffffffffffffffffffffffffffffffff1673ffffffffffffffffffffffffffffffffffffffff16815260200190815260200160002090506000816001015411610653576040517f08c379a000000000000000000000000000000000000000000000000000000000815260040180806020018281038252600e8152602001807f6f6e6c7920696e766573746f727300000000000000000000000000000000000081525060200191505060405180910390fd5b600015158160020160009054906101000a900460ff161515146106de576040517f08c379a000000000000000000000000000000000000000000000000000000000815260040180806020018281038252601d8152602001807f746f6b656e73207765726520616c72656164792077697468647261776e00000081525060200191505060405180910390fd5b60018160020160006101000a81548160ff021916908315150217905550600260009054906101000a900473ffffffffffffffffffffffffffffffffffffffff1673ffffffffffffffffffffffffffffffffffffffff1663a9059cbb8260000160009054906101000a900473ffffffffffffffffffffffffffffffffffffffff1683600101546040518363ffffffff1660e01b8152600401808373ffffffffffffffffffffffffffffffffffffffff16815260200182815260200192505050602060405180830381600087803b1580156107b657600080fd5b505af11580156107ca573d6000803e3d6000fd5b505050506040513d60208110156107e057600080fd5b81019080805190602001909291905050505050565b60006020528060005260406000206000915090508060000160009054906101000a900473ffffffffffffffffffffffffffffffffffffffff16908060010154908060020160009054906101000a900460ff16905083565b60045481565b600160009054906101000a900473ffffffffffffffffffffffffffffffffffffffff1681565b600260009054906101000a900473ffffffffffffffffffffffffffffffffffffffff1681565b60008082840190508381101561091c576040517f08c379a000000000000000000000000000000000000000000000000000000000815260040180806020018281038252601b8152602001807f536166654d6174683a206164646974696f6e206f766572666c6f77000000000081525060200191505060405180910390fd5b8091505092915050565b60008083141561093957600090506109a6565b600082840290508284828161094a57fe5b04146109a1576040517f08c379a0000000000000000000000000000000000000000000000000000000008152600401808060200182810382526021815260200180610bc76021913960400191505060405180910390fd5b809150505b92915050565b60006109ee83836040518060400160405280601a81526020017f536166654d6174683a206469766973696f6e206279207a65726f000000000000815250610a40565b905092915050565b6000610a3883836040518060400160405280601e81526020017f536166654d6174683a207375627472616374696f6e206f766572666c6f770000815250610b06565b905092915050565b60008083118290610aec576040517f08c379a00000000000000000000000000000000000000000000000000000000081526004018080602001828103825283818151815260200191508051906020019080838360005b83811015610ab1578082015181840152602081019050610a96565b50505050905090810190601f168015610ade5780820380516001836020036101000a031916815260200191505b509250505060405180910390fd5b506000838581610af857fe5b049050809150509392505050565b6000838311158290610bb3576040517f08c379a00000000000000000000000000000000000000000000000000000000081526004018080602001828103825283818151815260200191508051906020019080838360005b83811015610b78578082015181840152602081019050610b5d565b50505050905090810190601f168015610ba55780820380516001836020036101000a031916815260200191505b509250505060405180910390fd5b506000838503905080915050939250505056fe536166654d6174683a206d756c7469706c69636174696f6e206f766572666c6f77a2646970667358221220c16cef6529d473a61c3ef09bf8b506b6a09abc2fb5ca73e583a2b331c8121d3964736f6c63430007000033",
  "source": "pragma solidity ^0.7.0;\n\nimport '../node_modules/openzeppelin-solidity/contracts/token/ERC20/IERC20.sol';\nimport '../node_modules/openzeppelin-solidity/contracts/math/SafeMath.sol';\nimport './CodeZ.sol';\n\ncontract CrowdSale {\n    using SafeMath for uint;\n    struct Sale {\n        address investor;\n        uint amount;\n        bool tokensWithdrawn;\n    }\n    mapping(address => Sale) public sales;\n    address public admin;\n    CodeZ public token;\n    uint256 burntPercentage = 2;\n    uint256 public maxToken = 10e18;\n    constructor(\n        address tokenAddress) {\n        token = CodeZ(tokenAddress);\n        admin = msg.sender;\n    }   \n    function buy(uint ethAmount, address payable CrowdSaleAddress)\n        external payable {\n        require(ethAmount<=5e17,'Amount is High');\n        require(maxToken>=address(this).balance.add(ethAmount));\n        uint256 tokenAmount = ethAmount.mul(100e18).div(1e17);\n        uint256 burnAmount = burntPercentage.mul(100).div(tokenAmount);\n        //address payable CrowdSaleAddress = address(this);\n        CrowdSaleAddress.transfer(ethAmount);  //default method to send ether\n        token.mint(address(this), tokenAmount);\n        token.burn(address(this), burnAmount);\n        sales[msg.sender] = Sale(\n            msg.sender,\n            tokenAmount.sub(burnAmount),\n            false\n        );\n    }\n    \n    function withdrawTokens()\n        external {\n        Sale storage sale = sales[msg.sender];\n        require(sale.amount > 0, 'only investors');\n        require(sale.tokensWithdrawn == false, 'tokens were already withdrawn');\n        sale.tokensWithdrawn = true;\n        token.transfer(sale.investor, sale.amount);\n    }   \n    modifier onlyAdmin() {\n        require(msg.sender == admin, 'only admin');\n        _;\n    }\n}",
  "sourcePath": "/home/harsh/Crowdsale/contracts/CrowdSale.sol",
  "compiler": {
    "name": "solc",
    "version": "0.7.0+commit.9e61f92b.Emscripten.clang"
  },
  "schemaVersion": "3.0.23",
  "updatedAt": "2020-12-14T03:48:25.067Z",
  "networkType": "ethereum",
  "devdoc": {
    "kind": "dev",
    "methods": {},
    "version": 1
  },
  "userdoc": {
    "kind": "user",
    "methods": {},
    "version": 1
  }
}